:10000000A85F0020CD310000858D0000B9310000CF
:10001000B9310000B9310000B9310000B931000038
:10002000000000000000000000000000313300006C
:10003000B931000000000000C9320000B9310000F1
:100040008D3400008D3400008D3400008D340000AC
:100050008D3400008D3400008D3400008D3400009C
:100060008D3400008D3400008D3400008D3400008C
:100070008D3400008D3400008D3400008D3400007C
:100080008D3400008D3400008D3400008D3400006C
:100090008D3400008D3400008D3400008D3400005C
:1000A0008D3400008D3400008D3400008D3400004C
:1000B0008D3400008D3400008D3400008D3400003C
:1000C0008D3400008D3400008D3400008D3400002C
:1000D0008D3400008D3400008D3400008D3400001C
:1000E0008D3400008D3400008D3400008D3400000C
:1000F0008D3400008D3400008D3400008D340000FC
:100100008D3400008D3400008D3400008D340000EB
:100110008D3400008D3400008D3400008D340000DB
:100120008D3400008D3400008D3400008D340000CB
:100130008D3400008D3400008D3400008D340000BB
:100140008D3400008D3400008D3400008D340000AB
:040150008D340000EA
:100154002DE9F00791E8F807B2E802105B1854EBB8
:100164000C04B2E802104D4156EB0C06B2E8021042
:100174004F4158EB0C08B2E8021059EB01095AEB55
:100184000C0A80E8F80780410130BDE8F0077047A9
:100194002DE9F00791E8F807B2E802105B1A74EB56
:1001A4000C04B2E802108D4176EB0C06B2E80210A2
:1001B4008F4178EB0C08B2E8021079EB01097AEB75
:1001C4000C0A80E8F80780414042BDE8F007704718
:1001D4002DE9F007524290E87800B1E88007174013
:1001E400DB1918EA020854EB080419EA020955EB72
:1001F40009051AEA020A56EB0A0678C090E8780064
:10020400B1E8800717407B4118EA020854EB080460
:1002140019EA020955EB09051AEA020A56EB0A061D
:1002240078C080410130BDE8F00770472DE9F00740
:10023400524290E87800B1E880071740DB1B18EAC7
:10024400020874EB080419EA020975EB09051AEAB5
:10025400020A76EB0A0678C090E87800B1E88007D5
:100264001740BB4118EA020874EB080419EA0209B2
:1002740075EB09051AEA020A76EB0A0678C0804192
:100284004042BDE8F00770472DE9F00152424FF0BB
:10029400040890E8300091E8C000A31B1340E41A5E
:1002A400F618EB1B1340ED1AFF1830C0C0C1B8F1AB
:1002B4000108EED1BDE8F001704700BF00B592E837
:1002C400DC072DE9DC07B1E8805702B4A7FB025133
:1002D4000A95A8FB020BE7FB6310E9FB62B00B91E4
:1002E400A8FB0351EAFB6201E7FB64B5E7FB660583
:1002F400E8FB6615CDF830B0A9FB03B6EAFB63163C
:10030400ECFB6356E8FB640BE9FB641BEAFB645BF0
:10031400ECFB646B0D90ACFB0230059CEEFB625071
:10032400E9FB6460EAFB64B0E7FB6431E8FB645119
:10033400069CE8FB6461E9FB64B1EAFB64010E938B
:10034400A7FB0432079CE7FB6462E8FB64B2E9FBA9
:100354006402EAFB6412049CE9FB6453EAFB6463F1
:10036400089CE7FB64B3E8FB6403E9FB6413EAFB62
:1003740064230F955DF8049B99E80006DDF800807E
:10038400A9FB0854EAFB68B4DDF81080ECFB6804B0
:10039400EEFB6814E9FB6824EAFB6834DDF80480AA
:1003A400EEFB6865E9FB68B5EAFB6805DDF81480D7
:1003B400ECFB6815EEFB6825E9FB6835EAFB68454C
:1003C4000F96DDF80880AEFB0876E9FB6806EAFBC9
:1003D4006816DDF81880ECFB6826EEFB6836E9FB4E
:1003E4006846EAFB6856DDF80C80ECFB68B7EEFB68
:1003F4006807E9FB6817EAFB6827DDF81C80ECFB5B
:100404006837EEFB6847E9FB6857EAFB686708B0A2
:1004140000BD00BF2DE9F14F87B0FFF74FFFDDF8B6
:100424001C8008F1200888E8FF00FFBC87E87F08EB
:10043400BDE8F08F00B591E89857A3FB03520195EE
:10044400A3FB0401E3FB6420E3FB67100292A3FB1C
:100454000752E3FB6802E4FB6415E3FB6805E3FB76
:1004640069250391A4FB07B6E3FB6926E3FB6A56FF
:10047400E4FB670BE4FB682BE3FB6A5BE3FB6C6B5D
:100484000490A4FB0810E4FB6950E3FB6C60E3FBFD
:100494006EB0E7FB6721E4FB6951E4FB6A61E3FBAF
:1004A4006EB1E4FB6E010592A7FB0832E4FB6A62BD
:1004B400E4FB6CB2E4FB6E02E7FB6E12E7FB6853ED
:1004C400E7FB6963E4FB6CB3E7FB6C03E7FB6E13C8
:1004D400E8FB6E230695A7FB0954E7FB6AB4E7FB28
:1004E4006C04E8FB6C14E8FB6E24E9FB6E34E8FB57
:1004F4006865E7FB6AB5E8FB6A05E8FB6C15E9FB90
:100504006C25E9FB6E35EAFB6E450796A8FB097678
:10051400E8FB6A06E9FB6A16E9FB6C26EAFB6C3623
:10052400EAFB6E46ECFB6E56E8FB69B7E9FB69072C
:10053400E9FB6A17EAFB6A27EAFB6C37ECFB6C47BA
:10054400ECFB6E57EEFB6E6700BD00BF2DE9F14F6B
:1005540087B0FFF76FFFDDF81C8008F1200888E8FA
:10056400FF00FFBC87E87F08BDE8F08F2DE9F04F5E
:1005740090E8F00F00F140004FF0040E59E0F0B4A1
:10058400826BC36B04680525242687593C444FEAD3
:10059400724787EAF24787EA92273C4442684FEA67
:1005A400F21787EAB24787EAD2073C4440F8044B83
:1005B400032D08BF6FF01B0687593A444FEA73476F
:1005C40087EAF34787EA93273A4443684FEAF317E5
:1005D40087EAB34787EAD3073A4440F8042B87599C
:1005E4003B444FEA744787EAF44787EA94273B443D
:1005F40044684FEAF41787EAB44787EAD4073B44D0
:1006040040F8043B013DC0D1A0F13C00076A3C44E2
:100614004FEA724787EAF24787EA92273C44026826
:100624004FEAF21787EAB24787EAD2073C44C46329
:10063400F0BC4FF0020288EA781C8CEAF84C0BEB11
:10064400BC1C8AEA090303EA080383EA0A039C44FC
:1006540050F8043B9C4451F8043B9C44674444EAEE
:10066400050B0BEA060B04EA05034BEA030BE34410
:1006740084EAF42383EA34530BEBB30B87EA771C45
:100684008CEAF74C0AEBBC1C89EA080303EA07036B
:1006940083EA09039C4450F8043B9C4451F8043B0E
:1006A4009C4466444BEA040A0AEA050A0BEA04037A
:1006B4004AEA030AE2448BEAFB2383EA3B530AEB4C
:1006C400B30A86EA761C8CEAF64C09EBBC1C88EA71
:1006D400070303EA060383EA08039C4450F8043B37
:1006E4009C4451F8043B9C4465444AEA0B0909EADA
:1006F40004090AEA0B0349EA0309E1448AEAFA23F2
:1007040083EA3A5309EBB30985EA751C8CEAF54C84
:1007140008EBBC1C87EA060303EA050383EA070324
:100724009C4450F8043B9C4451F8043B9C4464446E
:1007340049EA0A0808EA0B0809EA0A0348EA03082E
:10074400E04489EAF92383EA395308EBB30884EADD
:10075400741C8CEAF44C07EBBC1C86EA050303EA20
:10076400040383EA06039C4450F8043B9C4451F878
:10077400043B9C44E34448EA090707EA0A0708EAF9
:10078400090347EA0307674488EAF82383EA3853EE
:1007940007EBB3078BEA7B1C8CEAFB4C06EBBC1C17
:1007A40085EA040303EA0B0383EA05039C4450F837
:1007B400043B9C4451F8043B9C44E24447EA080649
:1007C40006EA090607EA080346EA0306664487EAD6
:1007D400F72383EA375306EBB3068AEA7A1C8CEADA
:1007E400FA4C05EBBC1C84EA0B0303EA0A0383EA14
:1007F40004039C4450F8043B9C4451F8043B9C443F
:10080400E14446EA070505EA080506EA070345EA5E
:100814000305654486EAF62383EA365305EBB305FC
:1008240089EA791C8CEAF94C04EBBC1C8BEA0A03B8
:1008340003EA090383EA0B039C4450F8043B9C44F9
:1008440051F8043B9C44E04445EA060404EA0704E6
:1008540005EA060344EA0304644485EAF52383EACB
:10086400355304EBB304013A7FF4E5AEA0F1400044
:10087400BEF1010E7FF483AEA0F1400C9CE80F00A2
:10088400001949199219DB19ACE80F009CE80F0014
:100894004044494452445B44ACE80F00BDE8F08F47
:1008A40030B44FF0000310F8014B11F8015B013A2A
:1008B40084EA050443EA0403F5D1A3F101034FEAF2
:1008C400D37030BC704700BF4FF0000310F8012B09
:1008D400013943EA0203F9D1A3F101034FEAD370CA
:1008E400704700BF30B411F8014B12F8015B6C4043
:1008F40000F8014B013BF6D130BC70472DE9F007FD
:1009040091E8F807B2E802105B1854EB0C04B2E863
:1009140002104D4156EB0C06B2E802104F4158EB61
:100924000C08B2E8021059EB01095AEB0C0A894190
:10093400B3F1FF3374F1FF3475F1FF3576F100063E
:1009440077F1000778F1000879F101097AF1FF3AAB
:1009540051F100015B184C414D4156F1000657F12D
:10096400000758F1000859EBD1795AEB010A80E8E5
:10097400F807BDE8F00770472DE9F00791E8F8079C
:10098400B2E802105B1A74EB0C04B2E802108D4159
:1009940076EB0C06B2E802108F4178EB0C08B2E853
:1009A400021079EB01097AEB0C0A89415B184C417E
:1009B4004D4156F1000657F1000758F1000859EB74
:1009C400D1795AEB010A80E8F807BDE8F0077047CF
:1009D40018EB040859EB05095AEB060A5BEB070B05
:1009E4005FF0000C4CF1000C18EB050859EB0609FC
:1009F4005AEB070A5BEB070B50EB0C005FF0000CA3
:100A040051EB0C0152EB0C0263414CF1000CB8EBBE
:100A1400070879F100097AF1000A7BEB040BA8417D
:100A2400B141A241B3416CF1000CBBEB050BB041E9
:100A3400B941AA41BB416CF1000C4CF001068CF0A9
:100A4400020718EB060859EB6C095AEB6C0A7BEBAE
:100A54006C0B70EB6C0471EB6C0572EB670653EB7B
:100A64006C076CEB6C0C18EB0C0059EB0C015AEB9B
:100A74000C025BF1000354F1000455F1000556EB40
:100A8400DC7657EB0C0770472DE9F14F87B0FFF781
:100A940015FCDDF81080DDF81490DDF818A0FFF7E0
:100AA40097FFBDE8000FFFF793FF03B05DF8048BD9
:100AB40088E8FF00BDE8F08F2DE9F14F87B0FFF71C
:100AC400B9FCDDF81080DDF81490DDF818A0FFF70C
:100AD4007FFFBDE8000FFFF77BFF03B05DF8048BD9
:100AE40088E8FF00BDE8F08F53B94AB9002908BF70
:100AF40000281CBF4FF0FF314FF0FF3000F00CB85E
:100B0400ADF1080C6DE904CE00F010F8DDF804E056
:100B1400DDE9022304B07047704700BF034613F8B1
:100B2400012B002AFBD1181A013870472DE9F04730
:100B340086468C460846089E154674461946002B80
:100B440040F0C1808542B2FA82F245D94AB1C2F17D
:100B5400200300FA02FC954094402EFA03F343EA82
:100B64000C0C4FEA154EA8B2230CBCFBFEF80EFB8E
:100B740018CC08FB00F943EA0C43994528D9EB1833
:100B840008F1FF3704D2994502D9A8F102072B4492
:100B9400A3EB0903A4B2B3FBFEFC0EFB1C330CFB5A
:100BA40000F044EA0344A04214D92C190CF1FF3399
:100BB40004D2A04202D9ACF102032C44241A43EA21
:100BC40007401EB1D440002334607360BDE8F08751
:100BD4004746DDE76346F1E792BB431B01214FEA39
:100BE400154EAFB2200CB3FBFEFC0EFB1C330CFB0A
:100BF40007F840EA0343984561D9EB180CF1FF303C
:100C040004D2984502D9ACF102002B44A3EB0803AB
:100C1400A4B2B3FBFEFC0EFB1C330CFB07F744EA47
:100C24000344A7424DD92C190CF1FF3304D2A74237
:100C340002D9ACF102032C44E41B43EA0040C0E7B0
:100C4400C2F120039540944020FA03F12EFA03F3F5
:100C54004FEA154E9040AFB20343B1FBFEFC0EFBCE
:100C64001C10190C0CFB07F841EA0041884522D9F5
:100C740069180CF1FF3004D2884502D9ACF10200A6
:100C84002944A1EB08019BB2B1FBFEFC0EFB1C1135
:100C94000CFB07F743EA01439F420ED9EB180CF112
:100CA400FF3104D29F4202D9ACF102012B44DB1B79
:100CB40041EA004193E76046E3E76146F7E76046AF
:100CC400A4E76346B8E7834206D916B9002108466B
:100CD4007CE7C6E900E0F9E7B3FA83F78FB983420A
:100CE40001D3724508D8BEEB020460EB0303012074
:100CF4009C461EB9002169E73846FAE7C6E9004C6C
:100D0400F8E7C7F1200CBB400EFA07F522FA0CF401
:100D14002EFA0CF1BA401C4320FA0CF3B8404FEA07
:100D2400144901431FFA84FEB3FBF9F809FB183098
:100D34000B0C08FB0EFA43EA00439A4540D9E3182A
:100D440008F1FF3004D29A4502D9A8F102002344E5
:100D5400A3EB0A0389B2B3FBF9F809FB183308FBC8
:100D64000EFE41EA03418E452CD9611808F1FF3388
:100D740004D28E4502D9A8F10203214443EA00407B
:100D8400A1EB0E01A0FB02984145CE46434602D397
:100D940006D14D4504D20138B9EB020E68EB0403C9
:100DA400002EA7D0B5EB0E0261EB030101FA0CFC97
:100DB40022FA07F3F9404CEA0303C6E9003199E744
:100DC4004046C5E74346D9E72DE9F04F05460C46B2
:100DD4008BB071B90146344807F02EFB21463348E5
:100DE40007F02AFB642132480BB0BDE8F04F07F04E
:100DF40023BB4FF06408A1FB0893079317232D48E6
:100E04002D4AA1FB000103FB0411C00B40EA414041
:100E14000023C90BFFF768FE06902848CDE9082394
:100E2400A4FB0001C00B40EA41400023224AC90B45
:100E3400FFF75AFE93469A46294605901A4807F04A
:100E4400FBFA4FF47A72002358465146FFF74CFEE2
:100E54001B4D059BA4FB0567F60B46EA4746FF0BB3
:100E6400324621460190009316483B4607F0E4FAC7
:100E7400DDE908014FF47A720023FFF735FE069B83
:100E840003900293A9FB0553ED0B45EA4345DB0BA5
:100E9400CDE900534A464146079B0B4807F0CCFA7C
:100EA4000BB0BDE8F08F00BFF09F0000F49F00007E
:100EB40026A0000000E8764840420F0000CA9A3B92
:100EC4000090D00351A0000098A000002DE9F04F3D
:100ED4000021B7B040F6CD4007F01DF8C44807F034
:100EE400ABFAC44807F0A8FA402364220821C24898
:100EF40007F0A2FA4FF40041C04807F09DFAC04938
:100F0400C04807F099FAC04807F096FA40F6CD4079
:100F1400002107F000F80821BC4806F0FEFF014656
:100F240030B1BB4807F088FA002037B0BDE8F08F35
:100F340040F6CD40002106F0EEFFB44807F00CF86F
:100F4400044610B10146B348ECE740F6CD40002119
:100F540006F0E1FF40226421AF4807F06DFA3C221D
:100F640021460DEB02000E9408F0AAFB40F6CD409A
:100F74000021CDE907440994254606F0CCFF274615
:100F840008F0C4F880461EA807F0D5F8064608F015
:100F9400BDF8A0EB0800451947F10007002E00F04A
:100FA4007781324621469D4807F046FA002440F6F0
:100FB400CD40002106F0AFFF64220821984807F0D5
:100FC4003BFA40F6CD40002106F0A5FF64272546F4
:100FD400DFF8388208F09AF80122064600211EAB99
:100FE400404607F045F808F091F8801B041945F1D4
:100FF4000005013FEED16422002320462946FFF775
:1010040073FD884D01462C68642604448648FFF726
:10101400DBFE29688548FFF7D7FE21468448FFF7A1
:10102400D3FE40F6CD40002106F075FF3C46DFF8C4
:10103400DC8108F06BF80322814600211EAB404698
:1010440006F0F7FF08F062F8A0EB0900001947F179
:101054000007013E0446ECD1642200233946FFF721
:1010640043FD2C68014604447248FFF7ADFE29682D
:101074007148FFF7A9FE21467048FFF7A5FE40F628
:10108400CD40002106F047FF64243746DFF87C8119
:1010940008F03CF81EA98146404606F0B9FF08F066
:1010A40035F8A0EB0900801947F10007013C06461A
:1010B400EED1642200233946FFF716FD2E6801465F
:1010C40006445F48FFF780FE29685E48FFF77CFE10
:1010D40031465D48FFF778FE40F6CD40002106F02A
:1010E4001AFF5A4807F0A8F964252646DFF81C8140
:1010F40008F00CF800210746404606F0C7FF08F048
:1011040005F8C01B041946F10006013DF0D1002387
:10111400642220463146FFF7E7FC01464C48FFF7BE
:1011240053FE002140F6CD4006F0F5FE494807F095
:1011340083F941F244420821474807F07DF921210F
:10114400464807F079F96021454807F075F9002110
:1011540040F6CD4006F0DFFEDFF808B1424807F064
:101164006BF9424E424807F067F91EACDBF80010F9
:10117400404807F061F90FCE0FC433683E4823603E
:1011840007F05AF93D4807F057F9DFF8F4A01EAC10
:10119400002654F8049B09F1FF33002B00F3688107
:1011A400002E08BF0126DBF8007000237743A7FB5D
:1011B4000A01C00B40EA4140324AC90BFFF794FCD4
:1011C40080461946104600234FF47A72FFF78CFCD0
:1011D4000135CDE900803B46324649462A4807F0AE
:1011E4002BF9052DD4D1294807F026F99CE600BF38
:1011F400E1A0000015A1000035A100006FA10000CE
:101204000090D003ACA10000E2A00000E0080020A0
:10121400EDA100000FA2000037A2000074A200009C
:101224009AA50000D0080020D7A50000FEA5000064
:101234002EA6000051A6000081A60000B3A600005F
:10124400DEA6000009A700003BA7000066A7000077
:10125400A0A70000CBA70000E4A7000012A800008C
:1012640040A80000D80800206EA80000609B000081
:101274009FA80000D2A8000008A9000043A900000C
:1012840000CA9A3B40420F007EA90000A9A90000B1
:101294000134642C7FF474AE64220023394628465A
:1012A400FFF722FCDFF8D0B10146CBF80000734809
:1012B400FFF78AFD40F6CD40002106F02CFEB04633
:1012C40034460EAF07F022FF402181461EAA38465D
:1012D40006F01DFF054607F019FFA0EB090010EB0F
:1012E4000800804644F100041DB12A463146644892
:1012F4005AE60136642EE5D1642200232146FFF725
:10130400F3FBDFF880A10146CAF800005E48FFF74E
:101314005BFD40F6CD40002106F0FDFD2E46A846BB
:1013240007F0F4FE594981461EAAA1F1800006F097
:1013340011FF044607F0EAFEA0EB090080190646F7
:1013440048F100081CB12246294651482CE60135D3
:10135400642DE5D1642200234146FFF7C5FBDFF885
:1013640034910146C9F800004B48FFF72DFD40F6C3
:10137400CD40002106F0CFFD2546264607F0C6FEE7
:10138400102303930AABCDE9017340230C2280465A
:10139400009307A93B461EA806F0EFFE059007F050
:1013A400B5FE059AA0EB08035B191D4646F100063D
:1013B40012B121463948F7E50134642CDED16422A8
:1013C400002328463146FFF78FFB354D0146286040
:1013D4003448FFF7F9FC2146334C344807F02CF825
:1013E4002146334807F028F84FF40041314807F00C
:1013F40023F8314807F020F8304807F01DF830484A
:1014040007F01AF8DBF8001041B1A1FB0423D20B5A
:1014140042EA43422B48DB0B07F00EF8DAF80010DF
:1014240049B1214A2848A1FB0223D20B42EA434294
:10143400DB0B07F001F8D9F8001049B11A4A234828
:10144400A1FB0223D20B42EA4342DB0B06F0F4FF7A
:10145400296849B1144A1E48A1FB0223D20B42EA6F
:101464004342DB0B06F0E8FF134806F0E5FF9DE579
:101474005B10013691E600BFDC08002099A2000051
:10148400C7A20000D8080020ECA20000A41100208C
:1014940013A30000D408002038A3000069A30000AF
:1014A400D00800208EA300000090D003C0A3000049
:1014B400F9A3000016A4000059A4000098A4000099
:1014C400D7A4000016A5000037A5000058A5000009
:1014D40079A500002DE9F04B0446B8B00D469046BE
:1014E4000021A02210A81F4608F0EAF80CAA04F173
:1014F400100C134620686168083403C364451A4617
:10150400F7D1EC466346002428686968244E03C377
:10151400A8680DF1100E186008AD0394BC4202D106
:1015240038B0BDE8F08B14F00F092BD19CE80F0004
:1015340085E80F002A4610230CA8117810F801BB87
:10154400013B81EA0B01715C02F8011BF5D10A2110
:101554002A4600231078013380F0AB00102B02F8E8
:10156400010BF7D10139F3D195E80F008EE80F0094
:101574007246042312F8011D0131C9B2117009B970
:10158400013BF7D109F1E0030DEB030919F8D02C65
:1015940018F804305340409A13550134BEE700BF95
:1015A400CBA900002DE9F04F91B0009302F00403A1
:1015B4000293C2F3C2030133840705460E46DDF8E5
:1015C40068800392059340F0BB81041D30B1072964
:1015D40009D86FF01B0011B0BDE8F08F01F00706C9
:1015E4003444C6F10806009B4FF000094FF0040A8A
:1015F400591E4FF0FF334F460193CB465346CDF867
:1016040010900DB1009A22600598002800F3E8803C
:101614009848009A824203D397488242C0F0E080FF
:10162400039AA4EB050E92074FEA9E0000F1038192
:101634000F2F00F2B180002D00F0058107F1400268
:101644000DEB020C019A0CF8200C0CF8102C0498E9
:1016540001300490E7E07A285DD84B280ED847285B
:1016640059D829282DD8252852D054D820287AD0C2
:101674002338D0F1000B4BEB000B74E04C382E28D0
:1016840049D8DFE800F07048484848484848484886
:1016940048484B484848484848484859484B4B599B
:1016A4005959704B6D487048184B184848827F4B05
:1016B40048484B487F0000204FF0000B4FF0040ACD
:1016C40038E001222A38C0B202FA00F010EA0E0F04
:1016D40049D110F0625C2FD110EA020B43D060466E
:1016E400013C5444B4FBFAF40AFB04F4002D61D029
:1016F400A3EB050CA444B4453FF66BAF002868D1B6
:10170400042B47D158F8043B2360042304342AE013
:10171400019A013A01924FF0000B24E011F8010CF8
:101724006C2834D1002011F8023C83466C2BC5D1BF
:101734004FF0080A5346D3E708F1070828F00708D2
:10174400073424F00704F8E802AB35B106982044C6
:10175400B0423FF63EAFC4E900AB4FF0000B083493
:101764004FF0080A534611F8010F002878D0BBF156
:10177400000F7FF470AF2528F5D14FF0010B019BCA
:10178400013301934FF0040AECE7584694E7002034
:101794008346A5E7082B02D06FF015001BE708F17C
:1017A400070828F00708F8E80223C4E900230823FF
:1017B4000834D8E768B9042B02D108F10408A4E777
:1017C400082BE9D108F1070828F0070808F10808F0
:1017D400EDE7059A013A059258F8042B009210E7B8
:1017E400039A900720D54FF0010CA4EB050E4FEAA5
:1017F4009E00BEF5007FCFD20F2FCDD8F5B107F1F3
:1018040040020DEB020E019AC0B20EF8200C0EF845
:10181400102CBCF1000F3FF41AAF60F07F000EF8FB
:10182400200C09F101090137C5F108024FF6DA7EEF
:101834000434069297E74FF0000CDAE7BCF1000F8E
:1018440001D00136EFE7029802360028EBD1009868
:10185400CDE90631FFF762F9DDE906310644E2E736
:10186400631BB3F5806F97D245B9A6F10804E0185D
:10187400B1E600BFBC970000B0B30000029A9B0819
:1018840028602B709DF81030C2B1EB7085F802907F
:10189400B9F1000F05D0002208A8C5F1010C974248
:1018A4000ED14FF0000AC5F101030DF12008019398
:1018B4000DF1300B574512D1601B8CE66B70E5E7D8
:1018C40010F8013B190608D50CEB040EB64503F0DD
:1018D4007F033FF67EAE04F8013B0132DFE7B9F146
:1018E400000F03D098F90020002A17DB029BD3B124
:1018F4001AF80B2004F8012B0022019B181910443C
:10190400B0423FF666AE98F80000009904F8010B67
:101914002046039207F0C7FE039A14440AF1010A11
:1019240008F10108C6E798F8002055F82230009322
:10193400029B009845F82230FFF7F0F8421CDCE7E0
:101944006FF00D0047E600BF2DE9F04F97B000AFF0
:10195400D7F880B03B62CBF3C0030446894690F8C5
:1019640002A0FA62BB6141B9457800780AEB8000B5
:1019740020444D4517D8A0EB0409E378FB61BAF184
:10198400000F02D01BF0010F16D1FB6953BBFB6A99
:101994001BB1494620463A6A98474D4628465C376B
:1019A400BD46BDE8F08F461C3046FFF7B7F801305E
:1019B400304409F10109DCE7626823787A62FA6A43
:1019C4009900796104EB8301002A40F001810E46FD
:1019D4004FF000084D4601EB0A094E454CD101EB8E
:1019E4000A0610E01BF0020FD1D023789A007A6126
:1019F400626804EB83017A62FA6A002A77D14D4661
:101A0400904601EB0A061BF0050F0CBF02230123CD
:101A1400FB62FB6906EB430A0BF00203BB6256450B
:101A2400BCD016F8021B16F8013C54F82390994BCD
:101A3400994502D3984B994536D3BB69002B40D0C6
:101A4400786A06F0D2FC00283BD0E9468AB06A46A0
:101A5400924B53617B6AC2E906314FF400731384DD
:101A64008F4B42F8103F00234FF412518D4800F081
:101A740017FD023DCD46D2E716F8013BF96254F852
:101A84002300FFF74BF8D7F88430F96A01304BB1E3
:101A9400D7F8883098453EBFD7F8843023F818002B
:101AA40008F10108054498E7BB6923B1786A06F098
:101AB4009CFC0028C9D11BF0010F05D1FB6AED1A6B
:101AC400ADE7BB6A002BAAD04846FFF727F8D7F842
:101AD400843053B1D7F8883098453FBFD7F8842075
:101AE400431C22F8183008F10108054497E7BAF1BD
:101AF400000F73D01BF0040673D0D046002607F104
:101B0400480052463B61B96207F0CDFDB96A3B69B2
:101B140001EB0A02BA62FA69F9695200FA60BA6A18
:101B240002EB41023A610BF00202BA603A69B96A07
:101B34008A4258D162781BF0020F18BF00217A62E2
:101B440008BF4FEA5801B2181BF0010FD2B240F09F
:101B54009F801BF0040F14BF40460020BB616270DD
:101B6400A070E17020463A6A7969FB6A9847051EBD
:101B7400FFF614AFBB69414623707B6A3A6A63700F
:101B8400FB6984F802A0E37007F14800FB6A9847F8
:101B9400B0F10008C0F2BA807B69A9EB0A01C91A46
:101BA400FB683A6AC91AD7E90A0398470028C0F2C1
:101BB400AF804FF0000BA84408EB000507F1380A8A
:101BC400B34571D300213A6A0846FB6A9847E5E6B3
:101BD40056464FF0000807F1380092E75646D046C3
:101BE40096E7B04694E7BA6A12F8021B12F8015C51
:101BF400BA6254F82500274A904202D3264A9042FA
:101C04001ED3BA6932B1786A7B6006F0EEFB7B685A
:101C140000288BD1BA6802BB08F1280207F1300C06
:101C240008F10100944407F1580208F1020852FA3D
:101C340080F00CF8101C5FFA88F800F8105C75E767
:101C4400BA693AB1786A7B6006F0CFFB7B680028FA
:101C54007FF46CAF1BF0010F09D006F1280207F1E5
:101C64003000711C161806F8205CCEB25EE71BF03B
:101C7400040F3FF45BAF08F1280207F1300008F1CC
:101C8400010102EB000808F8105C5FFA81F84DE7E7
:101C9400002063E7BC970000B0B30000CBAA0000AB
:101CA40004000001009B00001BF80A3054F8239044
:101CB40087F83730D7F884302BB3D7F888309B4572
:101CC40021D2D7F8843033F81B8001213A6AFB6AA9
:101CD40007F13700984700281ADB0544B8F1000FD4
:101CE40006D14846FEF71AFF00F101081FFA88F8EA
:101CF400414648463A6AFB6A9847002808DB05448F
:101D04000BF1010B5CE74FF00008DEE7454645E6C2
:101D1400054643E6014B1860704700BF08000020E9
:101D240080B505460E461746984604F0CDFA03469C
:101D340007F038FD0446DFF81890424649F80030B1
:101D440039463046A84754F8090001F0A5FA00BF07
:101D5400080000002DE9F047058B0446280790464B
:101D640011D4022905F0070540F0CC80204606F086
:101D7400D3FD78B10138218B042811D8DFE800F0B5
:101D8400C2106D85950001290CBF45F0100545F082
:101D94002005258388F31188BFF36F8FBDE8F08792
:101DA40001F0070AAA4500F0A5800027B9463E467F
:101DB400A368002B00F0BC8041F00801218388F364
:101DC4001188BFF36F8FA168002900F0BA800D68F5
:101DD400002900F0B680334652462046D1F80480EC
:101DE400C047002D76D02B6829461D46F0E701F048
:101DF40007035A1F012A1BD8002221F00701062BD2
:101E0400276889B2C4E9002209D13B4603E0628B0A
:101E1400013262831B68002BF9D141F00201204694
:101E2400218306F079FD00287AD041F0200176E084
:101E3400042B0AD121F0070189B22046218306F040
:101E44006BFD10B141F020012183218B01F0070AC1
:101E5400AA454FD00027B946AAE7236921F0070114
:101E640041F00601062DD3F8009021832DD1B9F15C
:101E7400000F3FD041F00801218388F31188BFF39C
:101E84006F8F20463949C84729E021F007012369AB
:101E940041F0040189B2042DD3F804902183E6D0E3
:101EA40000274FF0040A3E4682E721F00701236928
:101EB40041F0050189B2052DD3F808902183D6D0CD
:101EC40000274FF0050A3E4672E700274FF0060A46
:101ED4003E466DE72B4687E7B9F1000FD1D1EFF30A
:101EE4001188202383F31288BFF36F8F238B23F091
:101EF40008032383258BEA062ED525F010032383BC
:101F040005F007056669218B002EBFF670AF00232C
:101F14002768C4E9003321F0070141F0010121835E
:101F2400218B4FF0000901F0070AAA457FF440AF66
:101F3400002F9CD041F00801218388F31188BFF35E
:101F44006F8F002FC8D03D6839463346524620462D
:101F540006F00EFD2F46F4E7AB067FF51BAF25F028
:101F64002003238305F0070500E700BFA1890000D3
:101F74002DE9F047044607464FF00109DFF8508089
:101F840014B93846BDE8F08794FAA4F5B5FA85F596
:101F940009FA05F32E0108EB05156FEA030A24EA92
:101FA40003042B7B002BEBD058F806301B694BB98C
:101FB4004644736804222846196807EA0A0700F0B1
:101FC4005BFADDE7284698470028D9D1F0E700BF3F
:101FD400509B000030B5002289B00F490F4807F02C
:101FE400F8FA002200230024CDE906230E230C4D29
:101FF400CDE903344FF440722846CDE90144094B3E
:102004000949009403F0C8FE0849284607F0F2F98C
:10201400204609B030BD00BF35200000D80600209E
:102024005002002021230000682B00207FAB000019
:10203400014803F019BE00BF400200202DE9F0471B
:1020440080461F480F4606F053FD0646002830D050
:1020540000252846BDE8F087237B6BB12368DB6845
:102064000BB12046984723681B69D3B963680422DF
:102074002046196800F000FA013610344C45EBD3C1
:10208400B8F1000FE5D0002DE2D02846FFF770FF2D
:102094000546002FF7D000214FF4A47007F040FA52
:1020A400F1E7204698470028E0D00AFA06F31D43DA
:1020B400E2E705464FF0010A024CDFF80C90DDE739
:1020C400341D0020509B0000609B0000014B53F81E
:1020D400200070479C9B000008B5034608462BB1BE
:1020E400044A136000F072FC002008BD6FF0150074
:1020F400FBE700BF0C00002010B5044C237813B993
:10210400034803F0B1FD0123237010BD5C2B0020B4
:102114004002002010B50446094806F0E9FC3CB131
:10212400084BD3E8EF1F0139C3E8E21F002AF8D1B6
:10213400054807F05AFABDE81040044803F094BD7E
:102144002C1D0020301D0020D80600204002002055
:1021540000200146034BD3E8EF0FC3E8E21F002A37
:10216400F9D170472C1D002070B5FFF7F1FF05462B
:10217400074C084EB44200D370BD63685B792BB141
:1021840023685B6813B12946204698471034F1E769
:10219400509B0000609B000010B5044C044920468D
:1021A40006F053FA034B1C6010BD00BF78010020F9
:1021B400889B0000241D002008B50023074A4FF423
:1021C40000411370064A07481360074A1360FFF77B
:1021D40083FFBDE80840FFF7DFBF00BF5D2B002091
:1021E4002C1D0020F18A0000301D00200146002231
:1021F4000023014806F04ABA78010020014806F09D
:10220400E3BA00BF78010020024B0146186806F0CB
:102214002FBB00BF241D0020014806F064BB00BF93
:102224007801002070B5264B1878002847D0FFF7B6
:10223400E5FF054670B1234BD3E8EF1F0139C3E82E
:10224400E21F002AF8D1204C204EB4422DD3284658
:10225400FFF7DAFF1E4B1F4C1B68002B19DD07F03C
:10226400B6F94FF47A72A0FB020302FB0131C30BEF
:1022740043EA4143D4E900209B1A40F2E9324FEA91
:10228400D13161EB0001934271F1000101D3FFF7F9
:102294006BFFD4E9003213F57A7342F10002C4E90A
:1022A4000032BDE87040FFF7B7BF63685B7923B1C4
:1022B4002368294620461B6898471034C5E770BD3B
:1022C4005C2B0020301D0020509B0000609B000010
:1022D4002C1D0020D006002070B50D4D297861B961
:1022E4000120FFF7ABFE0B4C0B4EB44206D3FFF7B5
:1022F40099FF0028FBD101232B7070BD63685B79C3
:102304001BB1236820469B6898471034EDE700BF53
:102314005D2B0020509B0000609B000000212DE9F4
:10232400F0470846FFF78AFE044658B340F2676850
:102334004FF0000907F036FA1B4B1C4A1B58136078
:1023440033B11B4B1B68092B02DD1A4803F08CFCCC
:102354000025194FDFF85CA044B12046FFF708FEC2
:10236400044618B94FF0FF384FF0FF39FFF75AFF12
:10237400064628B9B5B942464B46504603F0A8FC78
:102384003546E9E74FF0FF384FF0FF39D2E72B68C5
:102394009B691BB100222846114698471035BD425F
:1023A400F5D3E8E7054DFAE708000000281D0020F2
:1023B400301D002040020020609B0000509B000064
:1023C40013B5184806F094FB174B1B7873B1EFF361
:1023D4001184202383F31288BFF36F8FFFF722FF4A
:1023E40084F31188BFF36F8F02B010BD0F4B1B68CD
:1023F400002BF9D050B9002200230D48CDE9002369
:102404004FF40042002304F01BFAEDE70928EBD156
:10241400074807F0EAF8074802B0BDE8104003F0A7
:1024240023BC00BF301D00205D2B0020281D002090
:10243400D80600204002002010B5064B04461B6855
:1024440098472146A060044806F09FF9BDE8104073
:10245400FFF7B6BF0C00002078010020044A054BAA
:102464009B1AB1EBD30F34BF52F8310000207047F0
:10247400009B0000509B0000084B10B4C31A446832
:102484001B110133237143689A7101224368196057
:1024940043685A7110BCFFF72FBE00BF509B000069
:1024A4002DE9F04F8FB0C1F34A2804AF0D46914691
:1024B400B8607B600C0DB8F1000F63D000264FF0BC
:1024C400040B4FF00A0A07F11403C7F80C80C7E99C
:1024D40007667E620193CDF808B0CDF800A007F13D
:1024E4001C0332464846F968FFF72EFAB0F5006F30
:1024F40003461CD36C468AB0D9F8041004AB2648B2
:102504001A46C3E9050140F2FF71D9614FF4007125
:102514001984224B42F8103F4FF41251334620489D
:10252400FFF7BEFFA5462C37BD46BDE8F08FC0F3CC
:102534000A0804F11700184420F0070080083B60E3
:10254400FFF754FE68F35325044690B13B6800F14D
:102554001001C7E9083607F11403F961CDE900A3B6
:10256400CDF808B048460F4AF96807F11C03FFF795
:10257400EBF968F353252A4620467B68B96806F0D0
:10258400E9FAD0E704F1170020F007008008FFF70C
:102594002DFE0446EDE700BF94AB000004000001EB
:1025A400189B00002D8B00002DE9F04F87B00446E6
:1025B400DDE9105ADDE91279934698460391BFB1DB
:1025C4003B46524610210020CDF80090CDF81490DF
:1025D400FEF7E8FFB0F5006F06460AD340F2FF733A
:1025E4000221174A174807B0BDE8F04F06F00BBBAD
:1025F4003E4605F11700304420F007008008FFF73D
:10260400F5FD04F007040BF0070BE40044EA8B1417
:1026140044EA462444EA0554054640B13FB13B46EA
:1026240052463146CDF800901030FEF7BBFF4346CA
:1026340022462846039907B0BDE8F04F06F08ABA4F
:10264400D3AB0000189B0000406820B1034BC01AB4
:1026540040F3CF0070474FF0FF307047009B0000FD
:102664000EB403B503AB53F8042B0146044801939D
:1026740001F02AF902B05DF804EB03B0704700BF23
:10268400558C0000CA0605D48B064CBF0249034989
:10269400FFF7E6BF704700BF0CAC00000BAC0000B6
:1026A4002DE9F04F89B09B46149B9DF84CA00693EE
:1026B400159B04460593169B0D469046179E04935E
:1026C400BAF1000F00F09D8006F48073079306F0C2
:1026D40029FA06F00209024600283ED02046914914
:1026E400FFF7BEFF0746B9F1000F08D016F0440FFC
:1026F40035D12A4620468C49FFF7B2FF074406F03D
:10270400010353B1894B204653F82A20884B894949
:10271400002A08BF1A46FFF7A3FF06F48073002BB4
:1027240049D006F00803002B63D1B8F1000F66D03E
:10273400424620468049FFF793FF0546069B3D44E9
:10274400002B6DD1049B002B73D1F30700F1E480BF
:1027540031462046FFF796FFD8E00746C3E7774B9C
:1027640018680028CAD0764B4FF47A791B684FF06A
:102774003C0CB5FBF3F5B5FBF0F14FF4616300FBE2
:10278400115509FB05F5B1FBF3F2B5FBF0FE03FBB4
:10279400121100FB1E55B1FBFCF309FB05F5B5FB5B
:1027A400F0F50CFB131120460091CDE901E56549D4
:1027B400FFF756FFA2E706F00803EBB1624B204691
:1027C40053F82A206149FFF74BFF0546B8F1000F83
:1027D40005D0424620465849FFF742FF0544BBF165
:1027E400000FABD05A4620465949FFF739FF05443C
:1027F400A4E74FF0000BE1E706F00805E6E74546DD
:102804009CE7BBF1010F069B06D1002B64D1049B0E
:10281400002B7BD000250CE0002BF8D04D485CE069
:102824004D48069B22464D4905F0AEFD049B002B06
:1028340068D0DFF82C81DFF82C91049F3146102FEB
:10284400204628BF10274FF0000BFFF71BFF5D4504
:1028540045DC059B494620461A78FFF701FF4FF0F7
:10286400010B1BF0070F03D141462046FFF7F8FE8A
:102874005F453BD9059B4946204613F80B20FFF7DB
:10288400EFFE0BF1010BBBF1100FEAD14FF0000B7F
:1028940020463549FFF7E4FE5A46059B20469A5CDC
:1028A400A2F120015F2928BF2E223049FFF7D8FE6C
:1028B4000BF1010BBBF1100F1DD01BF0070F03D15F
:1028C40041462046FFF7CCFE5F455A46E5D84146CF
:1028D4002046FFF7C5FEEBE71F485546A1E74146F2
:1028E4002046FFF7BDFE0BF1010BB0E7204620495F
:1028F400FFF7B6FEC5E7059B3B440593049BDB1B32
:1029040004939AD1BAF1000F7FF41FAF204609B0A7
:10291400BDE8F04F06F08FB92046054A0549FFF798
:102924009FFE15E713AC000017AC0000AC9B000041
:102934000EAC00003CAC00003FAC00003C1D00208D
:10294400381D002020AC0000C09B000043AC0000F8
:1029540049AC0000838C0000558C0000CD38000089
:1029640056AC00004EAC000058AC00005AAC00005D
:1029740054AC000042F20F7373B58B4228BF0B4670
:1029840005680446052168460D4A05F03DF80646EB
:10299400636828460B225B680A4906F03EF96368BF
:1029A4003246694628465B6806F037F963681B229D
:1029B40028465B68044906F030F902B070BD00BFD8
:1029C40020AE000079AC00005DAC000000210123C2
:1029D400064A904206D8064A01B901231360054B02
:1029E40018607047012140085B00F2E740420F0085
:1029F400381D00203C1D0020F8B50D460446064F46
:102A04004618B44201D12846F8BD14F8011BBB682E
:102A140001485B689847F4E778980000014B03602D
:102A240000207047089C000008B5044805F004FD28
:102A3400BDE80840024805F0FFBC00BFBFAC000081
:102A4400F4AC0000014804F0CDB800BF089C0000BD
:102A540038B5044618B90F4B0F485B68984761684E
:102A6400B1F5683F10D0B1F5680F0DD00B4DA942F8
:102A74000AD011F46861206807D00146084806F0BE
:102A840056FC00232360656038BD142206F018FE4E
:102A9400F9E700BF1001002022AD00002C5F5CA903
:102AA4006422002008B560B34368B3F5683F0ED0D4
:102AB400B3F5680F18D0144A934220D000684FF041
:102AC400FF324FF0FF3303F007F858B115E001224D
:102AD4000368D3E8EF1F002903D1C3E8E02F0028DF
:102AE400F7D10AD1002008BD0368084A1B7803F512
:102AF400807352F82330002BF4D00548F3E70548DF
:102B0400F1E76FF4E040EEE72C5F5CA900000350AE
:102B1400E98FFFFFEA8FFFFF08B520B34368B3F5E1
:102B2400683F09D0B3F5680F13D0114A93421DD002
:102B3400006803F049F814E000220368D3E8EF1FAB
:102B4400012903D1C3E8E02F0028F7D109D00948AF
:102B540008BD00210368084A1B7803F5807342F816
:102B640023100020F4E76FF4E040F1E70348EFE7B7
:102B74002C5F5CA9E98FFFFF00000350EA8FFFFF81
:102B840010B5044618B91D4B1D485B689847636827
:102B9400B3F5683F2FD0B3F5680F2CD0194A934290
:102BA40019D1236803BB4FF0FF324FF0FF332146A6
:102BB400154802F063FF08B923681BB90F4B13488B
:102BC4005B68984714220021206806F079FD4FF4D1
:102BD4006863636008E0B3F5683F0DD83A2B03D00F
:102BE40040F6BA629342DED1206806F0EAFB6368DD
:102BF40043F03A03636010BD054AF3E71001002077
:102C040022AD00002C5F5CA96422002048AD0000C6
:102C14003A00003A08B5064940231422054806F054
:102C240078FBBDE808400449044804F04DB800BFEF
:102C3400641D002064220020109C0000249C0000DD
:102C44002DE9F04706460C4600AF002936D0D1E9FD
:102C54000012E9468AB06D46A3684FF0050AA846FB
:102C64001F48C5E90723C5E9050148F810AF00234B
:102C740042464FF421511B48FFF712FCD4E90312DA
:102C8400CD466369AD461848C5E90723C5E9050182
:102C9400C5F810A0002342464FF421511148FFF714
:102CA400FFFBCD46E3690121104A0E4805F0ABFF56
:102CB400A36901210E4A0B4805F0A5FF012E07D197
:102CC400EFF305830B4A31460648103B05F09BFFA2
:102CD4002146304602F022FDBD46BDE8F08700BF24
:102CE40075AD0000389B0000A4AD0000D3AD00001A
:102CF400E2AD000010AE000030BFFFF7FDBF00BF23
:102D04002DE9F04105460B4EDFF82C80324606EBE8
:102D14000807CC1B2046094906F0C5FCA019424609
:102D24000021083C06F0CCFC2C6707F10800BDE844
:102D3400F08100BF0000000004000000609B000060
:102D4400074A936893F90E10002907DB52699342EE
:102D54001FBF044A536843F080535360704700BF59
:102D6400C823002000ED00E070B52A4C06460D464D
:102D740029482A4906F00BF8A36ADB0647D52648FA
:102D8400274906F004F81120A36A1C0704D5224839
:102D9400244905F0FCFF12201E4CA36A990712D5A2
:102DA40021491D4805F0F3FF636BA26A120609D599
:102DB40001211E4A184805F026FF1EB1A36A23F01C
:102DC4008003A3621320134CA36ADE0704D51248C0
:102DD400174905F0DCFF1420A36A9C0604D50E48AD
:102DE400144905F0D4FF15200A4B9A6AD10658BF3E
:102DF4009A6A9A6A920642BF5A6A22F400525A6246
:102E04009A6A42F0FF029A6200232B7070BD102070
:102E1400BAE700BF00ED00E0389B000023AE0000DD
:102E240039AE00006CAE00007FAE000097AE00002B
:102E3400ADAE0000CCAE000010B5244C24492548AA
:102E440005F0A5FFA36A99013ED52248224905F061
:102E54009EFF1E20A36ADA0104D51E481F4905F00F
:102E640096FF1F20194CA36ADB0204D519481C499C
:102E740005F08DFF0220A36A1C0304D515481949E7
:102E840005F085FF2120114CA36A590304D511488C
:102E9400154905F07CFF2220A36A9A0304D50D4846
:102EA400124905F074FF2320084CA36ADB0304D500
:102EB40008480F4905F06BFF2420A36A6FEA034317
:102EC4006FEA1343A36210BD1D20C3E700ED00E0C9
:102ED400FBAE0000389B000013AF000026AF0000DB
:102EE40040AF00006AAF000088AF0000ADAF000043
:102EF400C7AF000070B5294C06460D46284829493D
:102F040005F045FFA36AD9043CD52548264905F0B8
:102F14003EFF1720A36A1A0504D52148234905F06A
:102F240036FF18201D4CA36A9B0512D51C48204966
:102F340005F02DFFA36BA26A100409D501211D4AD7
:102F4400174805F060FE1EB1A36A23F40043A36290
:102F54001920124CA36A590504D51148164905F0E5
:102F640016FF1A20A36ADA050ED50D48134905F099
:102F74000EFF1B20094A936A43F47F4393620023A4
:102F84002B7070BD1620C5E7A36A9B04F2D50448D4
:102F94000B4905F0FCFE1C20ECE700BF00ED00E04F
:102FA400389B0000F2AF000008B000006CAE0000D7
:102FB40019B0000032B0000047B0000062B0000059
:102FC400CCAE00002DE9F0418AB0654B0446D3F83D
:102FD4000480002600AFC8F3080586F31188BFF308
:102FE4006F8F02F07F43B3F17F4F07D102F00C03E0
:102FF400082B12D15B495C4805F0C9FE0026344613
:103004000023FB71EB1E092B00F28980DFE803F03B
:103014000A7F827B87878787878510074CBF0C468A
:103024000126EDE75149504805F0B1FE00234C4D0F
:10303400FB71EB6A9A0705D54D494B4805F0A7FE8D
:10304400002331E0EB6A002B01DA4A49F5E7EB6A29
:103054005B00F5D54849444805F099FE6B69A269BF
:1030640043F480736B61BFF34F8FBFF36F8F6B6952
:1030740032F8022C23F480736B61BFF34F8FBFF3DC
:103084006F8F4DF602739A4207D0AB6ADBB26BB313
:103094000120F91DFFF768FE37E023680121374A54
:1030A400314805F0B0FD2368FA79DAB907F108056B
:1030B40004F1200C2A4620686168083403C2644580
:1030C4001546F7D17A6A002E45D0C2F3080121B91A
:1030D4006FEA52226FEA42227A62184607F1080127
:1030E400FFF7AEFD2837BD46BDE8F081AB6A13F4A7
:1030F4007F4F04D00120F91DFFF7FCFE05E0AB6A09
:10310400B3F5803F9CD3FFF797FE0346CCE700203E
:10311400F91DBFE70020F91DEEE719498DE7194AAB
:1031240018F4F87FE8468AB0174B18BF13466A466E
:103134001649103DC2E905134FF400731384144B70
:10314400D56142F8103F00234FF411510648FFF7B0
:10315400A7F9C54674E722F4FF7222F00102BBE727
:1031640000ED00E0A8B00000389B0000D3B00000E0
:10317400EAB000000BB1000019B1000038B1000042
:1031840054B100008FB000007AB0000078B10000A4
:1031940004000001064B5A6942F010025A615A6950
:1031A40042F480625A615A6922F008025A617047F7
:1031B40000ED00E0EFF30880EFF3098101B57246FA
:1031C400FFF700FF01BD00BF002080F31488BFF3A8
:1031D4006F8F002080F30A8880F30B880F4880F3F8
:1031E400088801F025FC00200D490860BFF34F8FCB
:1031F40000F02CF8202080F311880A484FF4006175
:10320400401880F30988EFF314800221084380F307
:103214001488BFF36F8F00F0CDF80000A85F002082
:1032240094ED00E0682E0020002318460649D1F8EA
:103234009020C2F30722934200DB7047C1F8983014
:10324400C1F8A0000133F6E700ED00E010B572B656
:10325400002484F31388FFF7E7FF23464FF0FF3081
:103264000C4A03F120010133102B42F82100F8D15C
:1032740000234FF0FF30074A03F160010133102BA4
:1032840042F82100F8D162B6BFF34F8FBFF36F8FBE
:1032940010BD00BF00E100E0084B9B6883420BD1E6
:1032A400EFF3058343B1064B5A6842F080525A60EB
:1032B4005A6A22F400425A6203F00CB8C823002070
:1032C40000ED00E016498A684FF030001044EFF337
:1032D400098C80E8F01F202080F31288BFF36F8FE1
:1032E400104F4FF000664A698A603E604FF07004E8
:1032F400141920680C4C2060506F0023536780F32E
:10330400118802F1300090E8F01F8CF3098802F173
:10331400000004B505F043FDBDE80440704700001B
:10332400C823002004ED00E0802200201EF0040FDA
:103334000CBFEFF30880EFF30980816911F8021CD8
:103344000229FFD001B5724605F016FD01BD00BF8C
:1033540040B2002807DB01234109034A00F01F00A3
:10336400834042F82130704700E100E0054B4209F8
:1033740053F82220012300F01F0003FA00F010404C
:10338400704700BF00E100E040B2002801F10101F4
:10339400ACBF00F16040064B4FEA4111C9B2ABBF6C
:1033A40000F5614000F00F0080F8001319547047D5
:1033B40014ED00E00B4A08B50B4B22F07F029A6033
:1033C400BFF34F8FBFF36F8FD3F8882022F47002BE
:1033D400C3F8882002F08EFA03F08CF800F048F865
:1033E40002F0C8FA0000000000ED00E042F8203CC2
:1033F400009B0B4942F81C3C019B21F0010142F85F
:10340400183C029B42F8081C42F8143C4FF08073AD
:1034140042F8043C0023203A02654367704700BF2A
:10342400251D000000B50B4B15469860026F0A4B32
:103434000E461A60036E83F30B882C4686F30988C4
:103444000020064B98472046002100220023044C0C
:10345400204700BFC823002080220020AB8D00003D
:10346400251D00001022014B1A61704700ED00E099
:10347400002320210348C2180133452B82F800138E
:10348400F9D1704700E100E008B5EFF30583064A7F
:10349400103B02EBC30152F8330049688847BDE88A
:1034A4000840FFF74DBC00BF8C9800001FB5094CC5
:1034B400094A23460121094800F012F90023039325
:1034C400074B0121E41A01A80193029400F012F9B8
:1034D40004B010BD0000072000000020349C000050
:1034E4005002002010B50C7A0B6804F01F0223F080
:1034F4001F031A43CB68640923F01F03054943EAF9
:10350400440343F00103C1F89800C1F89C20C1F8BA
:10351400A03010BD00ED00E010B50A4BD3F8903098
:10352400C3F30723013B984208D901210346064A05
:10353400064805F068FB6FF0150010BDFFF7D2FFD9
:10354400FBE700BF00ED00E08FB10000309B0000FE
:103554002DE9F04F8946144606464FF00008514DB8
:1035640085B0C84527DAD6F804A0BAF1000F44D0D4
:10357400BAF11F0F17D91AF01F0F14D1D6F800B0E3
:103584001BF01F0F0FD1584605F049FC07460AEB04
:103594000B00013805F043FC874210D06FF015078B
:1035A400414A3B4601E04346404A0121404805F078
:1035B4002AFB6FF01504204605B0BDE8F08F17F123
:1035C400160FEDD0BC42EBDDC5F89870D5F89C1011
:1035D400C5F89870D5F8A03021F01F0143F01F0BF7
:1035E400D6E900321A44994202F1FF3A1DD1D3457B
:1035F40007D13146F8B205F01BFC08F101080C367E
:10360400AFE73146C5F89870D5F89C3022F01F0218
:1036140003F01F031343C5F89C30E0B205F008FC27
:1036240010F1160FC5D0441CE7E7C5F89870D5F81B
:10363400A020013B23F01F0302F01F021343D345D4
:103644003146E0B2C5F8A030E8D005F0F1FB10F146
:10365400160FAED0C5F89870D5F89C209DF80830A8
:103664000BF1FF3B62F304038DF80830D5F8A0306A
:103674009DF808205B0863F347128DF80820D6E90B
:1036840000321344009323F01F035B44A3EB0A03AB
:10369400013023F01F036946C0B20393FFF73CFFD8
:1036A400BEE700BF00ED00E0D8B10000B5B10000F6
:1036B400309B00000522044BC3F89420BFF34F8FC6
:1036C400BFF36F8F704700BF00ED00E0BFF35F8F63
:1036D4000022024BC3F89420704700BF00ED00E0C5
:1036E40010B5034C2278FFF733FF207010BD00BFE4
:1036F4005F2B00202DE9F74F294D8A4606464FF0EF
:103704000008AB46274FD0451BDAD6F80490B9F130
:10371400000F3FD031680846019105F080FB019904
:10372400044609EB0100013805F079FB84424FF0AF
:1037340014021D4B08D002FB08F36FF015024BF87E
:10374400032003B0BDE8F08F14F1160F2C60F8D0FD
:103754001978A142F5DD02FB08B0C7F89840C7F814
:103764009840D7F89C4000F10801007B64F3040002
:103774000871D7F8A0000C79400860F347140C7165
:10378400D7F89C1021F01F016960D7F8A01021F030
:103794001F01296108F1010814350C36B3E700BF95
:1037A4008422002000ED00E05F2B0020F0B54149A9
:1037B400414CD1F890302568C3F307239D4287B06C
:1037C40075D80020FFF782FF3C4BC1F8C03085421A
:1037D40016D13B4C01A82570FFF720F900250646B9
:1037E400384FAE4213D1002023783249D1F89020CB
:1037F400C2F30722934254DBFFF75CFF00202FE063
:10380400616801EB0011FFF76DFE0130DFE70199FC
:10381400280101EB0513DA683A40B2F5001F21D004
:10382400B2F5800F2BD0B2F5801F38D15A689B684F
:103834000958013B22F01F0003440120844623F071
:103844001F0340EA4C10CDE902218DF8100002A9B3
:1038540020780593FFF760FE00281DDA6FF015004D
:1038640007B0F0BD5A689B680958013B22F01F005D
:1038740003444FF0020C012023F01F03E1E75A68D0
:103884009B680958013B22F01F0003444FF0000CD1
:10389400062023F01F03D4E7237801332370013576
:1038A4009FE7C1F89830C1F8A00001339EE74FF0BC
:1038B400FF30D5E700ED00E0409C0000AAFF440083
:1038C4005F2B00200000F0FFF0B587B007460E46DE
:1038D40014460021102268461D4605F0F1FE02231D
:1038E4008DF80230054B2A4621466846CDE9047618
:1038F400019304F0B5F807B0F0BD00BF678E000077
:1039040008B5024B1B689847002008BD9822002088
:10391400034B044A1860937843F002039370704792
:10392400982200204800002008B50649064821F0E6
:103934000701C1F1005202F5E02204F0CDFC0020A1
:1039440008BD00BFAFDF00209C22002000F01F0252
:1039540040090DD001280DD1094B03EB8203D3F8A4
:10396400002222F0E04242EA0171C3F800127047DB
:10397400044BF2E70023803253F82230FFDE00BF0D
:10398400002884500025845038B50124134B144D6D
:10399400C3F8004502230321C5F8D0360020FFF701
:1039A400D5FF20460321FFF7D1FFC5F80447214680
:1039B400C5F804492120C5F8004BFFF7C7FF21468D
:1039C4002020FFF7C3FF21460B20FFF7BFFF21464E
:1039D4000A20FFF7BBFF002038BD00BF00100050D5
:1039E4000040005007B50DF1070001F045F9114BF7
:1039F40098421CD14FF480620F4B1049C3F8B8258C
:103A04004FF40062C3F83C259DF8070005F0A4FBC1
:103A14000B499DF8070005F09AFB01209DF807303B
:103A2400984001F023F9002003B05DF804FB6FF027
:103A34000B00F9E70000AD0B00A002502CA00250CF
:103A440028A10250052370B5144D154E2C7801346D
:103A5400B4FBF3F303EB8303E41A05F057FB114AB9
:103A6400137823B156F82430C01A072814D94FF01C
:103A74005023D3F8141141B10021C3F81411D3F821
:103A840014312C700CB9012313702C7805F03EFB13
:103A940046F82400012070BD0020FCE7612B0020C3
:103AA400A8220020602B002048B1054B054A1B6862
:103AB400B3FBF2F35843044B43F001031847704738
:103AC4005800002040420F00809B0000014902483A
:103AD40004F071BF689C0000BC2200204FF47F03F7
:103AE4002DE9F041D3F830210646072A0D46D3F8D4
:103AF400343120D1023B032B02D8124AD35CD3B118
:103B04004FF050244FF0010800270520C4F8188610
:103B1400C4F8147605F019FB4046C4F8148605F081
:103B240014FBC4F81476C4F8187630462B46BDE866
:103B3400F041002118474FF050230022C3F8142607
:103B4400F3E700BF0EB200002DE9F74305460C462B
:103B54001A4EDFF86C801B4F14B903B0BDE8F08334
:103B6400EFF31189202383F31288BFF36F8F05F0DD
:103B7400CDFA1549D1E90032C31842F1000008FB1F
:103B840003F206FB0022A3FB0630DB1942EB000222
:103B9400C1E9003289F31188BFF36F8F042CA14669
:103BA40028BF4FF004092846019201A94A4605F0AE
:103BB4007AFD4D44A4EB0904CEE700BFFDB0B08705
:103BC400E62EBB272DF304B500000020084B70B58A
:103BD400C31A0D4607499B10044659434022064820
:103BE40005F060F92B4601462046BDE870401847B1
:103BF400EC220020B76DDBB63C980000402373B57F
:103C04000B4C0093041B0B460D460A49A410614358
:103C14000646094A094805F070F9011E05DA3046DE
:103C24002B4602B0BDE87040184702B070BD00BF1B
:103C3400EC220020B76DDBB6678F00003C980000D3
:103C440010B5EFF31184202383F31288BFF36F8F31
:103C5400074A136823F00201DB07116002D4012034
:103C640005F086FA84F31188BFF36F8F10BD00BF8F
:103C74008C2300202DE9F84300220121064605206B
:103C8400FFF782FB114801F077F8114B984219D1E4
:103C940001F082F800244FF01C090C27DFF834806F
:103CA4003569414609FB045004F085FE002807DB12
:103CB400012307FB04551C44042CAB67F0D10020FE
:103CC400BDE8F8836FF00400FAE700BFD53D0000BB
:103CD4000000AD0B749C00001FB500220123CDE948
:103CE40002236B46084ACDF800D0CDF804D005F085
:103CF40031F9002805DB4FF480420023684601F0C7
:103D0400E7FF05B05DF804FB9D8F00000C22104B0B
:103D1400014602FB0033002030B4D3E91C5218677B
:103D2400EFF31180202484F31288BFF36F8F9C6F0C
:103D340004F0C00444F002049C6780F31188BFF3CC
:103D44006F8F1DB12B4630BC0248184730BC7047FA
:103D5400EC2200203C98000010B4EFF311822023E1
:103D640083F31288BFF36F8F1748016841F0020490
:103D74000460C80707D482F31188BFF36F8F012052
:103D840010BC01F021B84FF05021D1F80C04D1F847
:103D94000C14C907EFD5EFF3118083F31288BFF336
:103DA4006F8F0A498B6F03F0C00343F002038B67E4
:103DB40080F31188BFF36F8F82F31188BFF36F8F85
:103DC400002010BCFFF7A2BF8C230020EC220020AF
:103DD400092813D8DFE800F005101212121212128B
:103DE4000E0C074B986F10F0070007D1FFF78EBF3A
:103DF4000220FBE70320F9E70120F7E7704700BF43
:103E0400EC2200202DE9F041012207463649D1E891
:103E1400EF3FC1E8E02F0028F9D133B933493448E2
:103E24004B60CB608A6004F0D9FD7B1E012B2BD83C
:103E3400012F07D14FF05023D3F81C3403F00303B0
:103E4400022B21D005F0D0FA0546F8B9294B1B788E
:103E5400E3B14FF0502302220646C3F808234FF083
:103E64005024DFF89480D4F81824D4F81834D203FA
:103E740015D503F00303022B01D0012F0FD16DB32D
:103E840086F31188BFF36F8FBDE8F081EFF31186DD
:103E9400202383F31288BFF36F8F0125DFE7C5B1B9
:103EA400304604F0A0FFD4F81835DBB2012BDAD188
:103EB400D4F80421002AD6D00022C4F80421D4F86E
:103EC40004210222C4F818252022C8F88021A36006
:103ED400C9E70021212005F023FBE4E74FF050233C
:103EE4000222C3F80423CFE7E8220020D8220020CE
:103EF40008230020642B002000E100E008B50748F7
:103F040005F0BDF938B10648FFF702FD0448FDF796
:103F140001FF002008BD6FF01200FBE77898000055
:103F2400293F00000A2838B50446074D04D1AB6880
:103F34000D2128465B689847AB6803485B68E1B28B
:103F44009847204638BD00BF78980000F0B5406817
:103F540001F01F04057B87B044EA45140569002D70
:103F640063D0B2F5001F00F1100506D121462846A2
:103F740005F07EF9002007B0F0BD0027B2F5800FF0
:103F840001AE0197776039D1B3F1007F14BF0523E7
:103F940004238DF804300023CDE90463039383687C
:103FA40023FA01F111F001011AD1B2F1A07F17D166
:103FB40004F01F03620903F180032AD0012A3AD1D5
:103FC4001E4A52F82330DB070AD40DF103063246A9
:103FD4002146284601F0FEF9194B98421BD002965F
:103FE4002146284603AA01F0B1F8164B98421FD186
:103FF40001222146284601F04FFABBE7B3F1C06F16
:1040040005D0B3F1007F14BF01230223C1E70323CA
:10401400BFE70D4AD5E73146284601F037FA094B88
:104024009842DCD06FF00B00A5E76FF08500A2E7A3
:104034006FF015009FE751F82330FFDE002884500D
:104044000400AD0B0000AD0B0025845038B5456865
:104054002B69B3B11035284601F008FA044680B93B
:104064000146284601F0D0F9084B98420BD122466C
:104074002846074901F0A8F9224605210D20FFF73B
:1040840083F9002038BD6FF00400FBE70000AD0B9E
:10409400994000004209034670B502D0012A17D0A6
:1040A40070BD0D4E326951680029F9D0012503F025
:1040B4001F030C689D400029F2D08A682A4002D070
:1040C40030464B6898472CB1236821461C46F2E7DA
:1040D400024EE7E72346F8E7649800005098000092
:1040E4002DE9F04340F206354668D00648BF032068
:1040F400337B02EA050558BFC2F3401087B001F0D4
:104104001F07B5F5837F144647EA43178DF803006C
:1041140044D00FD8062D18D007D8B5B1022D3FD002
:104124006FF0150007B0BDE8F083B5F5807FF7D1D7
:1041340001250AE040F20222954233D0B5F5407FD2
:1041440032D0B5F5007FEBD102250123220303FA17
:1041540001F12BD573689960326972BB07F01F03B4
:104164007F0928D0012F75D13C4A02EB830284F4E5
:104174008033D2F80012C3F30043C4F3404444EA4A
:10418400430421F4706144EA800421F00F0144EAFD
:1041940005230B43C2F800320020C3E70725D4E708
:1041A4000425D2E70525D0E70325CEE7630344BF02
:1041B4007368D960D0E72A4AD7E7103639463046C3
:1041C4000DF1020201F006F914F4403F80460CD1CF
:1041D4003946304605F04AF8224B9845DCD1304642
:1041E4009DF8021001F04CF9D6E74FF0000901AB3D
:1041F4003946304603AACDE90439CDE90199CDF811
:104204000C9000F0A3FF174B984289D114F40033AB
:1042140015D09DF8033084F48034C4F300448DF841
:104224000E3039464B46304603AA8DF80C508DF8B3
:104234000D4001F047F80B4B9842CDD070E7CDE923
:10424400043339460DF10303304603AA039300F007
:104254007DFFF0E7803352F82330FFDE00288450DE
:10426400002584500000AD0B036803F01F025B09B6
:10427400026004D0012B034818BF00207047024895
:10428400704700BF00288450002584502DE9F04F6A
:104294001546834640F2FF18DFF88891DFF888A1BD
:1042A40085B000EB8101594503D1002005B0BDE87C
:1042B400F08FDBF80030C3F3C322082AC3F30804E9
:1042C40000F2AA801B0E444508BF4FF0FF3419F8D2
:1042D4000270222B00F2A380DFE803F012191F22E0
:1042E400252B22A1A1A1A13A67A1A1A1A1A1A1A1CC
:1042F400A1A16A7F8285A1A1A1888F9295989B0034
:10430400C5F80C45601C5DD10BF1040BCBE7C5F877
:104314001445621CF8D000265DE0C5F80845F1E7B5
:10432400C5F81045F5E7631CC5F80845ECD0002630
:1043340004E0661CC5F80C45E6D0012603A80394E6
:10434400FFF792FF0122039B02FA03F3C36008E024
:10435400C5F80845002FDCD1631CD5D000260627FC
:104364003246DBF80030039403F40040002818BF01
:10437400002203A818BF012601930092FFF774FFDF
:10438400039C019B00EB8400D0F80042C3F3412C52
:10439400009A3B0243EA8C03134304EA0A042343CE
:1043A40043EA4603C0F80032AEE7C5F80C45D1E74E
:1043B400C5F86045601CDBF80030A5D0C3F30043AA
:1043C400002BBAD0012603A80394FFF74DFF039BEB
:1043D40006FA03F383603246C3E7C5F86445E9E7A8
:1043E400C5F86845E6E7C5F86C45E3E7C5F8244534
:1043F400621C89D001260022B3E7C5F8284581E76D
:10440400C5F83045F4E7C5F83445F1E7C5F8384553
:10441400EEE7C5F83C4575E76FF0150046E76FF029
:10442400850043E764B20000F0F0FCFF2DE9F041A1
:1044340004460D46476804F0D7FF4FF0200888B9BA
:10444400264B1B7873B16426606804F022FEF0B931
:10445400012004F07AFE013EF6D10021212005F06E
:104464005FF8F0E7EFF31186314688F31288BFF363
:104474006F8F606804F00DFEA8B986F31188BFF34E
:104484006F8FEFE786F31188BFF36F8FE5E7EFF3E4
:104494001186314688F31288BFF36F8F606804F089
:1044A400F8FD0028EED0FB6900201D706368FA69EE
:1044B4001B68C3F844250122C3F84825C3F820012A
:1044C400D3F82041C3F85801D3F858019A6081F316
:1044D4001188BFF36F8FBDE8F08100BF642B00200B
:1044E400F7B50546002201210820FEF74DFF0820FC
:1044F400FEF72EFF6B681A691868C0F82425997DA9
:104504005A7D0A43198B1B7D0B431343C0F86C354A
:104514006E68D6E9004313F0010350D02F6907F108
:10452400080000F0A9FB334B984208D0324801211F
:10453400324A04F05FFB6FF0040003B0F0BD387A38
:1045440004F10C0204F5907104F00BFE387A012793
:1045540007FA00F000F08AFB0823C4F80035F36979
:10456400C4F844350023C4F84835A760D4F858315A
:10457400002BFBD00021C4F800156B6801AADC688D
:10458400204604F059FD002805DB019B22681979B7
:104594001868FFF77BFE08216A681368C3F80015E2
:1045A400117A51B9126AC3F834250122C3F83825A7
:1045B400C3F81011D3F810111A600020BDE70822C7
:1045C400C4F80025F269C4F84425C4F84835012329
:1045D400A360D4F82031002BFBD00023C4F8203191
:1045E400D4F820310123E3604FF48073C4F804331A
:1045F400BCE700BF0000AD0B489B00006DB200009B
:104604000123834070B5DC430B4AD2E8EF1F01EA73
:104614000405C2E8E65F002EF7D14FF480328240F1
:104624000648C0F80823BFF35F8FBFF36F8F0B42B8
:1046340014BF0120002070BDB82300200050015099
:1046440070B40E4922F07F46D1E90034D01AC31861
:1046540044F10004C1E90034A6F50013B3F5400F9A
:1046640009D2074B1B681A0A1B069C19054B42F119
:104674000005C3E9004570BC01F0FCBF2007002021
:10468400BC23002028070020D9B101230D4A834010
:10469400D2E8EFCF4CEA030CC2E8E1CF0029F7D10E
:1046A4004FF48033084A8340C2F80433074BD3E8FD
:1046B400AF3FC340DB0742BF4FF40012044BC3F8C3
:1046C40000217047B823002000500150B42300207B
:1046D40000E100E00D4B1868010A0006BFF35F8F8C
:1046E4000B4BD3F80435181841F10001B3F5801FC2
:1046F4000AD2084BD3E90023904271EB030303D29F
:1047040010F1807041F10001704700BFBC2300200C
:1047140000500150280700202DE9F04F85B01646BF
:104724001F4604469DF840A0FFF76AFF0190FFF77B
:10473400D1FFB04271EB070352D23B4B301A67EB07
:104744000101984271F100014DD2384B03EB04137F
:10475400D3E902239F4208BF964258D04FF48038D1
:10476400334908FA04F8204626F07F4BC1F8488301
:1047740004F0C0FC4FF00309584604F15005AD00A5
:10478400ADB205F1502504F5A87305F58035029303
:10479400029A20F07F4341F82230C1F84483D1F8D3
:1047A4000435244AC01A033820F07F4090422ED9A1
:1047B400286868B1D1F80435A3EB0B0020F07F40E2
:1047C400B0F5000F039322D9204604F093FC039B19
:1047D400BAF1000F07D109EB030009F10109D7E78A
:1047E400BAF1000F09D06FF0150520460199FFF7C3
:1047F4004BFF284605B0BDE8F08F01230E4AA340C5
:10480400D2E8EF0F1843C2E8E10F0029F8D10749B5
:104814000E982301C8500F9B01EB04120025C2E936
:1048240002675360E1E700BF010080001007002029
:1048340000500150FDFF7F00B42300207FB5002508
:104844004FF0FF304FF0FF31194C1A4B0226C4F8D9
:104854000833C4F84833184BC4F80855C3E90201B7
:104864004FF480334FF40012C4F80433134B012186
:10487400C4F804631520C3F880212A46FEF784FD9A
:104884001520FEF765FD01230D4AA3602360136024
:104894000C4B0D4A009328460023CDE90155FFF740
:1048A4003BFF3046FFF7AEFA284604B070BD00BFA8
:1048B4000050015003000F001007002000E100E049
:1048C400B823002045460000FFFF7F002DE9F74391
:1048D4002E4BD3F8042390070BD5D3F8042142B10F
:1048E4000022C3F804212A4AD3F80431136801339F
:1048F4001360264AD2F80433D90326D5254BD3E8CE
:10490400EF1F21F00100C3E8E40F002CF7D1CB071F
:1049140002D4D2F84031C3B100251C4CC4F8405134
:10492400D4F84031FFF7D6FEEFF31182202383F34E
:104934001288BFF36F8F184BD3E90267B042B941B5
:1049440006D282F31188BFF36F8F03B0BDE8F08302
:104954004FF0FF38D3E900104FF0FF391D60C3E971
:1049640002894FF48033C4F84833C4F84051D4F872
:10497400403182F31188BFF36F8F0029E5D0009096
:1049840032463B4628468847DFE700BF00500150C7
:10499400BC230020B42300201007002030B5431CA2
:1049A400124C85B005D08442A8BF0446012CB8BF80
:1049B4000124FFF78FFE0E4B0C4DD3E90013401A70
:1049C400B0F5000F0FD22218AA4228BF2A460020B1
:1049D40052180849CDE90100009143F10003FFF7A3
:1049E4009BFE05B030BD2A46F1E700BFFFFF7F0004
:1049F400200700204546000008B5FFF76BFE024B78
:104A04001B68C01A08BD00BF200700204FF47F03B5
:104A1400D3F83021D3F83431072A05D1023B032BD4
:104A240002D8024AD05C704700207047AEB2000042
:104A340008B5FFF7EBFF58B1644BD3F8202A3AB915
:104A44000D21C3F8201A0121C3F81C19C3F81C292D
:104A54000022D30003F57F03D3F80013013107D0FC
:104A6400D3F800130132D3F80433202A0B60F0D1B9
:104A7400FFF7CCFF002840F0A080FFF7C7FF40B14C
:104A8400534B544AC3F830254FF050230122C3F846
:104A940058254FF47F03D3F83021D3F83431072A53
:104AA40009D1023B032B06D84B4AD35C1BB100222D
:104AB4004A4BC3F84C25FFF7A9FF50B14FF05023E0
:104AC400D3F80024D10742BF0022C3F81421C3F84D
:104AD40018214FF47F03D3F83021D3F83431072A57
:104AE40009D14FF05023D3F80024D20744BF6FF00C
:104AF4000102C3F80024FFF789FF18B16522334B84
:104B0400C3F80C274FF47F03D3F83021D3F83431A2
:104B1400072A16D1314BD3F82034002B11DA4FF089
:104B240050230322C3F8182501229A60D3F80421E4
:104B3400002AFBD00022C3F804210122DA60C3F862
:104B440018254FF47F03D3F83021D3F83431072AE2
:104B540023D1023B032B02D8214AD35CEBB17E2242
:104B64001A4B1B49C3F80C27C3F83C297F231D4A61
:104B7400C2F818310023C1F8043EC1F8083E01F51B
:104B84004821C1F81031C2F82431C2F82C3102F5A1
:104B9400FF1202F58052C2F8A032134AD2F88C30C8
:104BA40043F44063C2F88C30104A114B1168C3F8C7
:104BB4004415D269C3F84C2508BD2922034BC3F818
:104BC4000C270322C3F83C2757E700BF00400050DE
:104BD400009003504400EFBEAAB20000002003502E
:104BE400A6B200000020005000ED00E00080FF00AD
:104BF4000060005030B50468ACB1B4FA84F301220B
:104C0400C3F11F03DBB29A4024EA0202D0E8EF5F4B
:104C1400A54204D1C0E8EC2FBCF1000FF6D1EAD1D3
:104C240002480B7030BD0248FCE700BF0000AD0B2A
:104C34000200AD0B10B50368CB40DB0710D4012391
:104C44008B40026843EA0201D0E8EF4F944204D15A
:104C5400C0E8EC1FBCF1000FF6D1F2D1014810BD41
:104C64000148FCE70000AD0B0400AD0B014BC3F899
:104C740004057047007001500146014800F044B932
:104C84005C0000200328F7B506462ED84FF05021CB
:104C9400364B374A33F81000925DC1F808030025FB
:104CA4000A44012142F210744FF05027314B116035
:104CB40033F816308E4203F150231D601B688DF8C3
:104CC400071008BF0DF10705022E32D0032E40D085
:104CD400012E1CD0D7F8183403F480333DB923B126
:104CE400012004F032FA013CF0D103B0F0BDD7F852
:104CF400182402F003022A70002BF6D09DF8070056
:104D04000128F2D104F021FA013CDDD1EDE7D7F816
:104D14000C3403F480333DB9002BE6D0012004F0B9
:104D240014FA013CF3D1E0E7D7F80C2402F00102B5
:104D3400E1E7D7F85C3403F480333DB9002BD4D0D9
:104D4400012004F002FA013CF3D1CEE7D7F85C2449
:104D5400ECE7D7F85434DB03C7D5002DCED10120BE
:104D640004F0F3F9013CF4D1BFE700BFE89F000071
:104D7400B2B20000E09F0000044B1A7922B901226C
:104D840018601A710248704702487047C023002017
:104D94000000AD0B0C00AD0B08B50A4B1B6833B11A
:104DA4000520FEF7E3FA10B90520FEF7D1FA4FF01B
:104DB40050230122C3F81825C3F81425C3F880250D
:104DC40008BD00BFC023002010B5032845D8DFE884
:104DD40000F01802554F00224FF480730121002087
:104DE40003F1502318601C68012402F1502214605E
:104DF400284A1268002A47D04FF05023C3F80413FE
:104E04002BE04FF05023D3F81814D3F81824C90317
:104E140012D502F00303022B05D0012B02D000208F
:104E2400FFF730FF01234FF050220221C2F818355A
:104E340008224FF48273D2E7D3F81424D207F1D5B1
:104E4400D3F81C2402F00302013A012AE7D8114ADC
:104E540012681AB10222C3F8042310BDD3F8042146
:104E6400002AFBD00022C3F80421D3F80431F4E76C
:104E740018224FF490734FF48071B0E720224FF45E
:104E840092734FF40071AAE71A68002AFCD01860E4
:104E94001B68E2E7C0230020F8B54FF0502301253A
:104EA4000026D3F80443174F04B9F8BDB4FA84F0CC
:104EB400C0F11F00830003F580739BB203F15023FC
:104EC40005FA00F2196892B224EA02040029EBD030
:104ED4001E601B684FF05023022AC3F808230DD12B
:104EE400D3F81814D3F8181401F00301012905D1DB
:104EF400C3F81825C3F804239960D5E73B68C0B20A
:104F04009847D1E7C02300200079024B03EB00103F
:104F1400FFF770BE64000020036803F01F025B0902
:104F2400026004D0012B034818BF002070470248D8
:104F3400704700BF0028845000258450034A430969
:104F4400D35C00F01F001844C0B27047B6B2000032
:104F540070B50546FFF7F2FF0C4C083034F81030FA
:104F64000E46DA0508D5C3F3432304EBC3022846EF
:104F740054F8333052689847A3682BB13146284619
:104F8400E268BDE87040184770BD00BF740000209F
:104F940008B5FFF7D3FF034B083033F81000400B7C
:104FA40008BD00BF7400002008B5FFF7C7FF034B1E
:104FB400083033F81000C0F3400008BD740000202E
:104FC40008B5FFF7BBFF034B083033F81000C0F3FC
:104FD400401008BD74000020034611F0010010B514
:104FE400CCB20BD1A207C4F340000DD5074A106A16
:104FF40058601062003818BF012005E004490A6AAD
:105004001A600A62002AEDD010BD00BF0028845047
:105014000025845010B5FFF791FF124A083032F88A
:105024001030D9051CD5C3F3432123F4F85322F8D7
:105034001030002002F10E0434F8023F13F4807F94
:1050440003D0C3F3432399420AD001303028F3D16B
:10505400002342F831300448BDE81040FFF7EABDB0
:1050640010BD00BF74000020EC000020F0B5054620
:1050740000200126044607468C420BD1114BD3F87D
:105084007C2132B10022C3F87C21D3F87C3140F07A
:105094000040F0BDE3B29B0003F580729B0806FA62
:1050A40003F31D420BD002F1A04202F55042D2F8A4
:1050B40000C0BCF1000F02D017601268184301341D
:1050C400DAE700BF00D00050F7B506460846FFF700
:1050D40035FF1A4F00F1080537F815300C46DB0789
:1050E4002AD5304604F09EF82046FFF769FF58B1F0
:1050F4002046FFF74DFF0022316800B201EB800328
:10510400C3F81025C3F810252046FFF783FF0023BA
:1051140001A827F815300194FFF7FEFE019B00EB70
:105124008300D0F80022064B134043F00203C0F87A
:105134000032044803B0F0BD0348FBE774000020CC
:10514400F0F0FCFF0000AD0B0400AD0B2DE9F043C3
:105154001646804685B00846FFF7F0FE0D463168D6
:10516400044609B32846FFF71FFF18B12846FFF786
:1051740027FF10BB00230DF10F02CDE900338DF89A
:105184000E308DF80F3028460B460DF10E0103F05A
:10519400F1FF484A04F1080132F8113023F0020308
:1051A40043F0010322F8113073687BB328461F785B
:1051B4005968FFF7F9FE10B1E9B13F4829E03D4ACB
:1051C40004F1080032F8103023F02003DB04DB0C78
:1051D40022F8103079B1032FEFD87168D1F804E0C8
:1051E400D8F800109EF800C001EB8C01A7B9C1F8F3
:1051F4001075C1F810752F4A04F1080132F8113006
:1052040023F01C0343EA870322F81130B3683BBB45
:105214002A4805B0BDE8F083D1F810E543EA4C33E1
:105224002EF0030EC1F810E5D8F8001043F0200367
:1052340001EB8C0EDEF8101522F8103021F44F31FA
:1052440021F44071CEF810152902DEF8108501F41E
:105254007C5141EA074141EA0801CEF81015CAE73A
:105264002846D3E90067FFF7D5FE002ED0D0114DB4
:10527400D5E90023964203D19F4201D1002209E0DF
:105284000F480DF10F01FFF7B5FC0C4B9842C0D14C
:105294009DF80F2005EBC20308345F6035F8143025
:1052A40045F8326043EA422343F4807325F814300E
:1052B400AEE700BF740000200400AD0B0000AD0B8E
:1052C400EC0000202DE9F0430C46804685B02046D2
:1052D40011461D46FFF732FE064629B32046FFF766
:1052E40063FE18B92046FFF76BFE18BB334F06F177
:1052F400080937F8193013F01C0F02D04B78012B32
:1053040018D001238DF80F3000234A1CCDE9001377
:1053140020468B1C0DF10F0103F02CFF37F81930D8
:1053240043F0030327F81930002D44D02046FFF73B
:105334003BFE18B9224805B0BDE8F083002295F879
:1053440000C0D8F800301D4F03EB8C03C3F81025C0
:10535400C3F8102506F1080237F812104FEA8C0E34
:1053640021F02001C904C90C27F812106E7816B375
:10537400D8F80000AD787044D0F81035360423F422
:10538400991323F4F853C0F81035230203F47C5323
:1053940006F440362D05D0F810E5334305F48015A6
:1053A4002B4341EA4C3143EA0E0341F02001C0F89B
:1053B400103527F812100348BDE700BF7400002021
:1053C4000400AD0B0000AD0B014BC3E902127047A2
:1053D4007400002010B508461446FFF7F1FD50B1E3
:1053E4000846FFF7ABFD054B083033F8103004488E
:1053F4005B0B237010BD0348FCE700BF7400002062
:105404000000AD0B0400AD0B70B5154D064695F8C4
:1054140080401CBB2146602205F1100004F050F9C5
:10542400214630682E6F8E420ED10023C0F87C31A5
:10543400D0F87C3140F30730FDF78AFF0123094897
:1054440085F88030AB6770BDCBB29B0003F58072EA
:105454007C2B04BF845083580131E4E70248F2E70F
:10546400740000200000AD0B0C00AD0B034B93F84F
:105474008000003818BF0120704700BF740000206E
:105484000148FFF7D7BB00BFE80000200148FFF741
:10549400B1BB00BFE800002073B503681646D3F81B
:1054A40004230546002AA8BF4FF000420846A8BFBF
:1054B400C3F804230C46FFF783FD00B30846FFF747
:1054C40073FD0146D8B92046FFF762FD04B2A4007B
:1054D4000346286804F58072815029688258214463
:1054E400D1F8102542F00102C1F810252EB1012295
:1054F400296802FA03F3C1F8043302B070BD2046F0
:10550400FFF71CFD0E4B083033F81030C3F3820351
:10551400042B11D0052B11D001A80194FFF7FCFC3A
:10552400019A0369D34003F00103991C204602B099
:10553400BDE8704003F067BE0321F7E70221F5E7F9
:10554400740000202DE9F04F684BDFF8A481D3F8F4
:105554000403D8F87010C0B289B040F00040FFF7DF
:1055640085FD051E2FDAC24600235AF87C1F06A8C3
:10557400CDE90633FFF730FD4FF0000B5D4B0DF125
:1055840018090193019A12F8013B0192DA081AF8FA
:10559400022003F0070322FA03F3DA071CD409F10B
:1055A4000409BBF1000F14D0D8F870104FF000407C
:1055B400FFF75CFDD8F87C1006A8FFF70DFD002866
:1055C400DAD125F000450124002D76D109B0BDE8DB
:1055D400F08F4FF0010BD5E7474B5B440293D9F8AA
:1055E40000100029DBD091FAA1F1B1FA81F1029BFC
:1055F4001C7841EA44142046FFF7A0FC083038F830
:105604001070C808BB080393012319F8002001F0A7
:10561400070103FA01F122EA010209F8002005A8B2
:105624000594FFF779FC059A039B803250F82220F9
:10563400C7F382065B073746C2F3014222D52046F0
:105644003946D6B2FFF784FC05A80594FFF764FC3D
:10565400059B803350F82330C3F301439E4207D1A6
:105664000021204603F0CFFD3146204603F0CBFD58
:1056740005A80594FFF750FC0122059B02FA03F3E9
:105684000362ACE7022A0CD10321204603F0BBFDE0
:1056940006F00503012BEBD139462046FFF758FCF1
:1056A400E6E702212046039203F0ADFD032EF3D07A
:1056B400039A032ADCD1022EEDE795FAA5F3B3FA97
:1056C40083F304FA03F29B0003F1A04303F5504370
:1056D400D3F81005D3F81015C0F30520C1F3014128
:1056E40025EA0205FFF734FC6EE700BF00D0005046
:1056F40074000020C6B20000C6B2000010B5044613
:10570400FCF7EAFD03480121034A03F073FA20463B
:1057140003F0C0FD389B0000C8B200002DE9F84337
:1057240004460D4600AFEFF31188202383F312885B
:10573400BFF36F8F0428294A98BF294BE9468AB0E2
:105744009668117C98BF53F820306A4688BF254B71
:10575400C2E9073140F2013323489384234BC2E961
:10576400050442F8103F00234FF431512048FCF760
:1057740097FECD4645B1EB69C3F3080323B101217C
:105784001C4A1B4803F036FA2EB1304603F035FEAE
:1057940008B1037803B91848E9468AB06A46174B3A
:1057A400D061C2E9053640F201331384144B42F848
:1057B400103F00234FF411510D48FCF771FE2946A8
:1057C400CD462046FFF79AFF88F31188BFF36F8F09
:1057D4003046FDF761FDBD46BDE8F883C8230020CF
:1057E400289D0000D7B20000EDB2000005000001C2
:1057F400389B000015B30000E5B2000036B300008A
:105804000400000138B5094B53F82040013053F827
:105814002050A54200D838BD636823B1204603F068
:1058240041FD0834F5E723689847FAE73C9D0000FA
:10583400012270B52A4B032086B01A70FFF7E2FFED
:10584400FDF7F2F803F04AFD0420FFF7DBFF254CD7
:10585400254D2646AE4204F1300410D300F03AFC44
:10586400204C224EAC4226D300F048FCFBF72EFB22
:105874001F4A137B23F00103137306B070BD54F861
:105884000C3C059354F8103C049354F8143C0393D3
:1058940054F8183C029354F81C3C019354F8203CEF
:1058A400009354E90A2354E90C0100F037FA54F840
:1058B400303C5E65CDE7D4E90A23B3F1FF3F08BF6E
:1058C400B2F1FF3F05D052EA0301206803D100F092
:1058D400D5FC3034C6E73146183000F055FEF8E701
:1058E400642B0020B49A0000B49A0000F1940000E4
:1058F400B007002008B50348034A0021121A03F038
:10590400E9FC08BD50020020682B0020002301227E
:1059140070B586B0CDE904230F220193CDE902329C
:1059240014234FF4A0720E4D0E4E03FB00550E4986
:1059340006EBC016044602FB00110C4B30460095E2
:1059440000F0ECF9737B2C7423F004037373084B9D
:10595400013403EBC423EE606B6006B070BD00BF7E
:10596400C82300203007002068360020A1930000DF
:10597400682E0020BFB50020FFF744FF2E4B03F52F
:10598400006282F3088883F30A880024E0232B4D05
:105994002B4E85F82230EC772C766C76AC7685F835
:1059A40020406B6A274F43F4E0236B6285F8234061
:1059B400FDF7F0FBFDF756FD4FF0FF33AB62EB62F2
:1059C400FDF7F4FEFDF772FDFCF7F6FB40F2011360
:1059D4001D4D2846AB81C5E9184400F06BFFB56046
:1059E40003F04CFC0120FFF70DFF0220174DFFF7D9
:1059F40009FF00F0B7FB164B7561059301231549A8
:105A04004FF42052CDE9034328463B46CDE90144F7
:105A1400009400F083F906466A7B284622F00402CB
:105A24006A7303F026FD2046FFF770FF3A463146BD
:105A34002846FDF7F7FC00BF682E002000ED00E0CB
:105A4400C82300203558000030080020B00700208B
:105A540098B30000A8370020002038B5054C064D47
:105A6400AC4200D338BD204603F039FC0028F9DBF2
:105A74001C34F5E7B4010020B401002073B50C46D2
:105A8400EFF31181202585F31288BFF36F8FC5686A
:105A94005DB125602B68C360836901338361002095
:105AA40081F31188BFF36F8F11E052EA030603D12B
:105AB4006FF00B002560F3E7CDE9002302460830C0
:105AC40000F068FA18B9034B9B685B69236002B065
:105AD40070BD00BFC82300202DE9F34104461746DA
